{
    "contractName": "Transactions",
    "abi": [
        {
            "anonymous": false,
            "inputs": [
                {
                    "indexed": false,
                    "internalType": "address",
                    "name": "from",
                    "type": "address"
                },
                {
                    "indexed": false,
                    "internalType": "address",
                    "name": "receiver",
                    "type": "address"
                },
                {
                    "indexed": false,
                    "internalType": "uint256",
                    "name": "amount",
                    "type": "uint256"
                }
            ],
            "name": "Transfer",
            "type": "event"
        },
        {
            "inputs": [
                {
                    "internalType": "address payable",
                    "name": "receiver",
                    "type": "address"
                },
                {
                    "internalType": "uint256",
                    "name": "amount",
                    "type": "uint256"
                }
            ],
            "name": "addToBlockchain",
            "outputs": [],
            "stateMutability": "nonpayable",
            "type": "function"
        },
        {
            "inputs": [],
            "name": "getAllTransactions",
            "outputs": [
                {
                    "internalType": "address[]",
                    "name": "",
                    "type": "address[]"
                },
                {
                    "internalType": "address[]",
                    "name": "",
                    "type": "address[]"
                },
                {
                    "internalType": "uint256[]",
                    "name": "",
                    "type": "uint256[]"
                }
            ],
            "stateMutability": "view",
            "type": "function"
        },
        {
            "inputs": [],
            "name": "getTransactionCount",
            "outputs": [
                {
                    "internalType": "uint256",
                    "name": "",
                    "type": "uint256"
                }
            ],
            "stateMutability": "view",
            "type": "function"
        }
    ],
    "bytecode": "608060405234801561001057600080fd5b50610569806100206000396000f3fe608060405234801561001057600080fd5b50600436106100415760003560e01c806327506f53146100465780632e7700f014610066578063b64782e514610077575b600080fd5b61004e61008c565b60405161005d9392919061041e565b60405180910390f35b60005460405190815260200161005d565b61008a610085366004610487565b6102af565b005b6060806060600060018054905067ffffffffffffffff8111156100b1576100b16104bf565b6040519080825280602002602001820160405280156100da578160200160208202803683370190505b5060015490915060009067ffffffffffffffff8111156100fc576100fc6104bf565b604051908082528060200260200182016040528015610125578160200160208202803683370190505b5060015490915060009067ffffffffffffffff811115610147576101476104bf565b604051908082528060200260200182016040528015610170578160200160208202803683370190505b50905060005b6001548110156102a25760018181548110610193576101936104d5565b600091825260209091206003909102015484516001600160a01b03909116908590839081106101c4576101c46104d5565b60200260200101906001600160a01b031690816001600160a01b031681525050600181815481106101f7576101f76104d5565b906000526020600020906003020160010160009054906101000a90046001600160a01b031683828151811061022e5761022e6104d5565b60200260200101906001600160a01b031690816001600160a01b03168152505060018181548110610261576102616104d5565b906000526020600020906003020160020154828281518110610285576102856104d5565b60209081029190910101528061029a81610501565b915050610176565b5091959094509092509050565b60016000808282546102c1919061051a565b90915550506040805160608082018352338083526001600160a01b038681166020808601828152868801898152600180548082018255600091909152975160039098027fb10e2d527612073b26eecdfd717e6a320cf44b4afac2b0732d9fcbe2b7fa0cf6810180549987166001600160a01b03199a8b1617905591517fb10e2d527612073b26eecdfd717e6a320cf44b4afac2b0732d9fcbe2b7fa0cf7830180549190961698169790971790935594517fb10e2d527612073b26eecdfd717e6a320cf44b4afac2b0732d9fcbe2b7fa0cf8909201919091558451918252928101929092529181018390527fddf252ad1be2c89b69c2b068fc378daa952ba7f163c4a11628f55a4df523b3ef910160405180910390a15050565b600081518084526020808501945080840160005b838110156104135781516001600160a01b0316875295820195908201906001016103ee565b509495945050505050565b60608152600061043160608301866103da565b60208382038185015261044482876103da565b8481036040860152855180825282870193509082019060005b818110156104795784518352938301939183019160010161045d565b509098975050505050505050565b6000806040838503121561049a57600080fd5b82356001600160a01b03811681146104b157600080fd5b946020939093013593505050565b634e487b7160e01b600052604160045260246000fd5b634e487b7160e01b600052603260045260246000fd5b634e487b7160e01b600052601160045260246000fd5b600060018201610513576105136104eb565b5060010190565b8082018082111561052d5761052d6104eb565b9291505056fea26469706673582212206e130d5a96354c5d4b969f719a9dcd8fbe51cd981c9386cc0a8af2af3663b05a64736f6c63430008130033",
    "sourcePath": "d:/work/smart_contract/contracts/Transactions.sol",
    "compiler": {
        "name": "solc",
        "version": "0.8.19+commit.7dd6d404"
    },
    "functionHashes": {
        "addToBlockchain(address,uint256)": "b64782e5",
        "getAllTransactions()": "27506f53",
        "getTransactionCount()": "2e7700f0"
    },
    "gasEstimates": {
        "creation": {
            "codeDepositCost": "277000",
            "executionCost": "318",
            "totalCost": "277318"
        },
        "external": {
            "addToBlockchain(address,uint256)": "121223",
            "getAllTransactions()": "infinite",
            "getTransactionCount()": "2280"
        }
    }
}